{
  "_format": "hh-sol-artifact-1",
  "contractName": "Note611",
  "sourceName": "contracts/Note611.sol",
  "abi": [
    {
      "inputs": [],
      "stateMutability": "nonpayable",
      "type": "constructor"
    },
    {
      "inputs": [
        {
          "internalType": "string",
          "name": "_note",
          "type": "string"
        }
      ],
      "name": "addNote",
      "outputs": [],
      "stateMutability": "nonpayable",
      "type": "function"
    },
    {
      "inputs": [],
      "name": "clearNotes",
      "outputs": [],
      "stateMutability": "nonpayable",
      "type": "function"
    },
    {
      "inputs": [],
      "name": "getNotes",
      "outputs": [
        {
          "internalType": "string[]",
          "name": "",
          "type": "string[]"
        }
      ],
      "stateMutability": "view",
      "type": "function"
    },
    {
      "inputs": [],
      "name": "owner",
      "outputs": [
        {
          "internalType": "address",
          "name": "",
          "type": "address"
        }
      ],
      "stateMutability": "view",
      "type": "function"
    }
  ],
  "bytecode": "0x6080604052348015600f57600080fd5b5033600160006101000a81548173ffffffffffffffffffffffffffffffffffffffff021916908373ffffffffffffffffffffffffffffffffffffffff160217905550610a4e806100606000396000f3fe608060405234801561001057600080fd5b506004361061004c5760003560e01c806346c3245e146100515780638da5cb5b1461005b578063a4edff4714610079578063b4af200d14610095575b600080fd5b6100596100b3565b005b610063610152565b604051610070919061036c565b60405180910390f35b610093600480360381019061008e91906104e1565b610178565b005b61009d6101b0565b6040516100aa919061066b565b60405180910390f35b600160009054906101000a900473ffffffffffffffffffffffffffffffffffffffff1673ffffffffffffffffffffffffffffffffffffffff163373ffffffffffffffffffffffffffffffffffffffff1614610143576040517f08c379a000000000000000000000000000000000000000000000000000000000815260040161013a90610710565b60405180910390fd5b6000806101509190610289565b565b600160009054906101000a900473ffffffffffffffffffffffffffffffffffffffff1681565b6000819080600181540180825580915050600190039060005260206000200160009091909190915090816101ac9190610946565b5050565b60606000805480602002602001604051908101604052809291908181526020016000905b828210156102805783829060005260206000200180546101f39061075f565b80601f016020809104026020016040519081016040528092919081815260200182805461021f9061075f565b801561026c5780601f106102415761010080835404028352916020019161026c565b820191906000526020600020905b81548152906001019060200180831161024f57829003601f168201915b5050505050815260200190600101906101d4565b50505050905090565b50805460008255906000526020600020908101906102a791906102aa565b50565b5b808211156102ca57600081816102c191906102ce565b506001016102ab565b5090565b5080546102da9061075f565b6000825580601f106102ec575061030b565b601f01602090049060005260206000209081019061030a919061030e565b5b50565b5b8082111561032757600081600090555060010161030f565b5090565b600073ffffffffffffffffffffffffffffffffffffffff82169050919050565b60006103568261032b565b9050919050565b6103668161034b565b82525050565b6000602082019050610381600083018461035d565b92915050565b6000604051905090565b600080fd5b600080fd5b600080fd5b600080fd5b6000601f19601f8301169050919050565b7f4e487b7100000000000000000000000000000000000000000000000000000000600052604160045260246000fd5b6103ee826103a5565b810181811067ffffffffffffffff8211171561040d5761040c6103b6565b5b80604052505050565b6000610420610387565b905061042c82826103e5565b919050565b600067ffffffffffffffff82111561044c5761044b6103b6565b5b610455826103a5565b9050602081019050919050565b82818337600083830152505050565b600061048461047f84610431565b610416565b9050828152602081018484840111156104a05761049f6103a0565b5b6104ab848285610462565b509392505050565b600082601f8301126104c8576104c761039b565b5b81356104d8848260208601610471565b91505092915050565b6000602082840312156104f7576104f6610391565b5b600082013567ffffffffffffffff81111561051557610514610396565b5b610521848285016104b3565b91505092915050565b600081519050919050565b600082825260208201905092915050565b6000819050602082019050919050565b600081519050919050565b600082825260208201905092915050565b60005b83811015610590578082015181840152602081019050610575565b60008484015250505050565b60006105a782610556565b6105b18185610561565b93506105c1818560208601610572565b6105ca816103a5565b840191505092915050565b60006105e1838361059c565b905092915050565b6000602082019050919050565b60006106018261052a565b61060b8185610535565b93508360208202850161061d85610546565b8060005b85811015610659578484038952815161063a85826105d5565b9450610645836105e9565b925060208a01995050600181019050610621565b50829750879550505050505092915050565b6000602082019050818103600083015261068581846105f6565b905092915050565b600082825260208201905092915050565b7f4f6e6c7920636f6e7472616374206f776e65722063616e20706572666f726d2060008201527f7468697320616374696f6e000000000000000000000000000000000000000000602082015250565b60006106fa602b8361068d565b91506107058261069e565b604082019050919050565b60006020820190508181036000830152610729816106ed565b9050919050565b7f4e487b7100000000000000000000000000000000000000000000000000000000600052602260045260246000fd5b6000600282049050600182168061077757607f821691505b60208210810361078a57610789610730565b5b50919050565b60008190508160005260206000209050919050565b60006020601f8301049050919050565b600082821b905092915050565b6000600883026107f27fffffffffffffffffffffffffffffffffffffffffffffffffffffffffffffffff826107b5565b6107fc86836107b5565b95508019841693508086168417925050509392505050565b6000819050919050565b6000819050919050565b600061084361083e61083984610814565b61081e565b610814565b9050919050565b6000819050919050565b61085d83610828565b6108716108698261084a565b8484546107c2565b825550505050565b600090565b610886610879565b610891818484610854565b505050565b5b818110156108b5576108aa60008261087e565b600181019050610897565b5050565b601f8211156108fa576108cb81610790565b6108d4846107a5565b810160208510156108e3578190505b6108f76108ef856107a5565b830182610896565b50505b505050565b600082821c905092915050565b600061091d600019846008026108ff565b1980831691505092915050565b6000610936838361090c565b9150826002028217905092915050565b61094f82610556565b67ffffffffffffffff811115610968576109676103b6565b5b610972825461075f565b61097d8282856108b9565b600060209050601f8311600181146109b0576000841561099e578287015190505b6109a8858261092a565b865550610a10565b601f1984166109be86610790565b60005b828110156109e6578489015182556001820191506020850194506020810190506109c1565b86831015610a0357848901516109ff601f89168261090c565b8355505b6001600288020188555050505b50505050505056fea2646970667358221220eeceeabc8e9f8abc7926309ca0c0e8dec179af698013f09c7f44fb60b6f3b05964736f6c634300081c0033",
  "linkReferences": {},
  "deployedLinkReferences": {}
}